:020000040800F2
:1000000000280020D5110008651100086B110008B8
:1000100071110008771100087D1100080000000030
:100020000000000000000000000000008311000834
:100030008F110008000000009B110008A7110008A4
:100040001D1200081D1200081D1200081D120008D4
:100050001D1200081D1200081D1200081D120008C4
:100060001D1200081D1200081D1200081D120008B4
:100070001D1200081D1200081D1200081D120008A4
:100080001D1200081D1200081D1200081D12000894
:100090001D1200081D1200081D1200081D12000884
:1000A0001D1200081D1200081D1200081D12000874
:1000B000B51100081D120008000000001D12000804
:1000C0001D12000800000000000000001D120008C2
:1000D000000000001D1200081D12000800000000B2
:1000E0001D1200081D1200081D120008000000006B
:1000F0000000000000000000000000000000000000
:0C01000000000000000000005FF808F1A3
:10010C0010B5054C237833B9044B13B10448AFF345
:10011C0000800123237010BD6C0000200000000043
:10012C004C28000808B5034B1BB103490348AFF337
:10013C00008008BD00000000700000204C28000862
:10014C0080B582B000AF00237B6053E02D4A7B6802
:10015C00134419782C4A7B6813440A461A702B4AAC
:10016C007B6813441978274A7B6813440A461A7033
:10017C007B68DBB2184600F051F8244A7B681344C4
:10018C001A7821497B680B441B789A422FD11E4A5E
:10019C007B68134419781E4A7B6813440A461A700C
:1001AC001B4A7B6813441B78002B16D1194A7B68B9
:1001BC0032F81330632B0AD8164A7B6832F81330A6
:1001CC00013399B2134A7B6822F813100FE0124ADC
:1001DC007B68134401221A7009E00F4A7B681344B0
:1001EC0000221A700B4A7B68002122F813107B68DE
:1001FC0001337B607B68022BA8DD00BF00BF083792
:10020C00BD4680BD04000020000000200800002036
:10021C000C000020880000209000002090B583B0D6
:10022C0000AF0346FB71FB79022B1CD0022B25DCA3
:10023C00002B02D0012B0BD020E0FC794FF4807105
:10024C00114801F0D1FA03461A46104B1A5516E024
:10025C00FC794FF400710C4801F0C6FA03461A46BB
:10026C000A4B1A550BE0FC794FF48061064801F0FB
:10027C00BBFA03461A46054B1A5500E000BF00BFF7
:10028C000C37BD4690BD00BF000C0140080000209B
:10029C0080B483B000AF0346FB71FB79032B01D90B
:1002AC00002307E0FB79064AD35C002B0CBF01232B
:1002BC000023DBB218460C37BD4680BC704700BF2C
:1002CC000C00002080B483B000AF0346FB71FB79B7
:1002DC00032B01D9002307E0FB79064AD35C012BE1
:1002EC000CBF01230023DBB218460C37BD4680BC83
:1002FC00704700BF9000002080B582B000AF7860DE
:10030C000120FFF7C5FF0346002B02D0334B01221F
:10031C001A70324B1B78002B18D00120FFF7B8FF56
:10032C000346002B12D12E4B1B8801332D4A82FB26
:10033C0003125111DA178A1A642101FB02F29A1A7C
:10034C0092B2274B1A80254B00221A700120FFF71E
:10035C00B9FF0346002B23D0234B1B785A1C234B8D
:10036C0083FB02135910D317C91A0B469B000B447D
:10037C00D11ACAB21C4B1A701B4B1B78002B0FD115
:10038C00174B1B880133174A82FB03125111DA17E2
:10039C008A1A642101FB02F29A1A92B2104B1A804B
:1003AC000220FFF775FF0346002B02D0104B0122F1
:1003BC001A700F4B1B78002B0CD00220FFF768FF34
:1003CC000346002B06D1064B1A887B681A80084B13
:1003DC0000221A7000BF0837BD4680BD9300002074
:1003EC00960000201F85EB5195000020676666661D
:1003FC009400002080B400AF224B1B88042B02D841
:10040C00204B05221A80204B1B88022B02D81E4B36
:10041C0003221A801D4B1B88012B02D81B4B022276
:10042C001A80194B1B881A46184B1B881344632BD4
:10043C001BDD154B1B88C3F163039AB2134B1A8057
:10044C00124B1B88012B10D8104B02221A800F4B19
:10045C001B88C3F163039AB20B4B1A800A4B1B889F
:10046C00022B02D8084B03221A80074B1A88074B21
:10047C001B8813449AB2034B1A8000BFBD4680BC44
:10048C00704700BF10000020120000201400002054
:10049C0080B500AF8B4B1B78032B00F2078101A2B8
:1004AC0052F823F0C1040008090500089D05000856
:1004BC002D06000800F03CF90020FFF7E9FE03468A
:1004CC00002B02D0804B01221A607F4B1B68002B43
:1004DC0000F0EE800020FFF7DBFE0346002B40F01F
:1004EC00E780794B00221A60784B1A88784B1A8077
:1004FC00744B01221A7000F081FBD9E000F0A2FBD2
:10050C00734B1B88734AA2FB0323DB089BB219466F
:10051C00002000F06FFA6E4B1A886E4BA3FB02138F
:10052C00D9080B469B000B445B00D31A9BB21946AF
:10053C00012000F05FFA0021022000F05BFA02219A
:10054C00032000F057FA6148FFF7D6FE0020FFF7B2
:10055C009FFE0346002B02D05B4B01221A605A4BC4
:10056C001B68002B00F0A6800020FFF791FE0346CD
:10057C00002B40F09F80544B00221A60564B1A8877
:10058C00534B1A804F4B02221A7000F037FB91E04C
:10059C0000F074FB4E4B1B884E4AA2FB0323DB0876
:1005AC009BB21946002000F025FA494B1A88494B9A
:1005BC00A3FB0213D9080B469B000B445B00D31A18
:1005CC009BB21946012000F015FA0021022000F020
:1005DC0011FA0321032000F00DFA3F48FFF78CFEBF
:1005EC000020FFF755FE0346002B02D0364B0122AC
:1005FC001A60354B1B68002B5ED00020FFF748FEBD
:10060C000346002B58D1304B00221A60334B1A880A
:10061C002F4B1A802B4B03221A7000F0EFFA4BE091
:10062C0000F048FB2A4B1B882A4AA2FB0323DB0859
:10063C009BB21946002000F0DDF9254B1A88254B9A
:10064C00A3FB0213D9080B469B000B445B00D31A87
:10065C009BB21946012000F0CDF90021022000F0D8
:10066C00C9F90421032000F0C5F91C48FFF744FE2A
:10067C000020FFF70DFE0346002B02D0124B012287
:10068C001A60114B1B68002B18D00020FFF700FEDE
:10069C000346002B12D10C4B00221A60FFF7AAFE66
:1006AC00084B00221A7000F01BF807E000BF06E0B0
:1006BC0000BF04E000BF02E000BF00E000BF00BFCD
:1006CC0080BD00BFC000002098000020100000205A
:1006DC0096000020CDCCCCCC1400002012000020C1
:1006EC0080B500AF0C4B00221A700C4B01221A7013
:1006FC000B4B1B881A460B4B1A600B4B1B881A466C
:10070C000A4B1A6000F0F6F900F062FA4FF47A70B6
:10071C0000F068FC00BF80BDCC000020C4000020AD
:10072C0010000020D000002012000020C800002083
:10073C0080B500AF5E4B1B685E4A82FB03129210C1
:10074C00DB17D31A1946002000F054F9584B1A68DD
:10075C00584B83FB02139910D317C91A0B469B00F5
:10076C000B445B00D11A012000F044F9524B1B687A
:10077C00504A82FB03129210DB17D31A194602203F
:10078C0000F038F94C4B1A684A4B83FB0213991052
:10079C00D317C91A0B469B000B445B00D11A0320DC
:1007AC0000F028F9454B1B68012B7ED1434B0022EE
:1007BC001A603F4B1B68002B04DD3D4B1B68013B53
:1007CC003B4A13603C4B1B68002B04DD3A4B1B6807
:1007DC00013B394A1360364B1B68002B2BD1384B2D
:1007EC001B78022B1CD0022B27DC002B02D0012BF8
:1007FC000BD022E0324B01221A70324B1B881A4666
:10080C002B4B1A6000F0A2F918E02D4B02221A7043
:10081C002D4B1B881A46264B1A6000F081F90DE00F
:10082C00274B00221A70294B1B881A46204B1A6042
:10083C0000F060F902E000BF00E000BF1E4B1B6837
:10084C00002B2BD1224B1B78022B1CD0022B27DC2C
:10085C00002B02D0012B0BD022E01D4B01221A7071
:10086C00184B1B881A46144B1A6000F0B1F918E0AB
:10087C00174B02221A70144B1B881A460E4B1A6027
:10088C0000F090F90DE0124B00221A700F4B1B88F0
:10089C001A46094B1A6000F06FF902E000BF00E045
:1008AC0000BF4FF47A7000F09DFB00BF80BD00BF0D
:1008BC00D000002067666666C8000020BC000020DF
:1008CC00CC0000201200002014000020100000209A
:1008DC00C400002080B582B000AF0346FB71FB79E9
:1008EC00092B01D90023FB71FA7940491346DB002F
:1008FC009B1A0B441B78002B14BF01230023DBB283
:10090C001A4601213A4800F086FFFA793749134616
:10091C00DB009B1A0B4401331B78002B14BF012303
:10092C000023DBB21A460221314800F074FFFA7939
:10093C002E491346DB009B1A0B4402331B78002B09
:10094C0014BF01230023DBB21A460421284800F00F
:10095C0062FFFA7925491346DB009B1A0B440333DB
:10096C001B78002B14BF01230023DBB21A4608218D
:10097C001F4800F050FFFA791C491346DB009B1A04
:10098C000B4404331B78002B14BF01230023DBB270
:10099C001A461021164800F03EFFFA791349134607
:1009AC00DB009B1A0B4405331B78002B14BF01236F
:1009BC000023DBB21A4620210D4800F02CFFFA79F7
:1009CC000A491346DB009B1A0B4406331B78002B99
:1009DC0014BF01230023DBB21A464021044800F067
:1009EC001AFF00BF0837BD4680BD00BF18000020AD
:1009FC00000C014080B483B000AF786039603B6874
:100A0C00002B08DB3B68092B05DC05497B683A6841
:100A1C0041F8232000E000BF0C37BD4680BC704776
:100A2C00D400002080B582B000AF786001224FF472
:100A3C0000712E4800F0EFFE01224FF480612B482C
:100A4C0000F0E9FE01224FF40061284800F0E3FEBB
:100A5C0001224FF48051254800F0DDFE7B68032B0A
:100A6C003ED801A252F823F0850A00089F0A00081C
:100A7C00B90A0008D30A00081D4B1B68DBB21846E4
:100A8C00FFF728FF00224FF40071184800F0C3FE56
:100A9C0027E0174B5B68DBB21846FFF71BFF002201
:100AAC004FF48061114800F0B6FE1AE0104B9B68C1
:100ABC00DBB21846FFF70EFF00224FF400610B4823
:100ACC0000F0A9FE0DE00A4BDB68DBB21846FFF71D
:100ADC0001FF00224FF48051044800F09CFE00E01E
:100AEC0000BF00BF0837BD4680BD00BF00080140F5
:100AFC00D400002080B500AF00220821074800F088
:100B0C008AFE01220221054800F085FE0122042103
:100B1C00024800F080FE00BF80BD00BF000801400D
:100B2C0080B500AF01220821074800F074FE0122B5
:100B3C000221054800F06FFE00220421024800F05B
:100B4C006AFE00BF80BD00BF0008014080B500AF49
:100B5C0001220821074800F05EFE00220221054810
:100B6C0000F059FE01220421024800F054FE00BF9F
:100B7C0080BD00BF0008014080B500AF00224021BD
:100B8C00074800F048FE01221021054800F043FE02
:100B9C0001222021024800F03EFE00BF80BD00BFB4
:100BAC000008014080B500AF01224021074800F049
:100BBC0032FE01221021054800F02DFE00222021DA
:100BCC00024800F028FE00BF80BD00BF00080140B5
:100BDC0080B500AF01224021074800F01CFE002226
:100BEC001021054800F017FE01222021024800F0D8
:100BFC0012FE00BF80BD00BF0008014080B500AFF1
:100C0C00012208210E4800F006FE012204210C48A6
:100C1C0000F001FE01220221094800F0FCFD012236
:100C2C004021074800F0F7FD01222021044800F084
:100C3C00F2FD01221021024800F0EDFD00BF80BD45
:100C4C000008014080B500AF0A4B1B68002B0ED08A
:100C5C00084B00221A600821074800F0F4FD4021DF
:100C6C00054800F0F0FD4FF4FA7000F099F900BF60
:100C7C0080BD00BFB00000200008014080B500AF6F
:100C8C000A4B1B68002B0ED0084B00221A60042163
:100C9C00074800F0D8FD2021054800F0D4FD4FF4A2
:100CAC00FA7000F07DF900BF80BD00BFB0000020DD
:100CBC000008014080B500AF0A4B1B68002B0ED01A
:100CCC00084B00221A600221074800F0BCFD1021DD
:100CDC00054800F0B8FD4FF4FA7000F061F900BF60
:100CEC0080BD00BFB00000200008014080B582B07C
:100CFC0000AF00F08FFA00F035F800F0BBF800F010
:100D0C006DF8154801F0E4F904233B6000237B6087
:100D1C00124B00221A70FFF7E3FC0A2000F01EF9B8
:100D2C000A2000F03DF90E4B1B68012B11D17B689A
:100D3C005A1C7A601846FFF775FE7B683A6893FB7D
:100D4C00F2F2396801FB02F29B1A7B60FA2000F088
:100D5C0005F9FFF79DFBE6E7E4000020C00000204A
:100D6C00A400002080B590B000AF07F11803282232
:100D7C000021184601F05CFD3B1D00221A605A60F0
:100D8C009A60DA601A610223BB610123BB621023F3
:100D9C00FB6200237B6307F11803184600F06CFD1F
:100DAC000346002B01D000F0D3F80F237B60002307
:100DBC00BB600023FB6000233B6100237B613B1D78
:100DCC000021184600F0D8FF0346002B01D000F09C
:100DDC00BFF800BF4037BD4680BD000080B586B06F
:100DEC0000AF07F1080300221A605A609A60DA60BB
:100DFC003B4600221A605A601D4B4FF080421A602D
:100E0C001B4B41F63F725A60194B00229A60184BEB
:100E1C000922DA60164B00221A61154B00229A61E6
:100E2C00134801F005F90346002B01D000F090F8AF
:100E3C004FF48053BB6007F1080319460C4801F0CE
:100E4C0083FA0346002B01D000F082F800233B60AC
:100E5C0000237B603B461946054801F05BFC0346CA
:100E6C00002B01D000F074F800BF1837BD4680BDD0
:100E7C00E400002080B586B000AF07F10803002223
:100E8C001A605A609A60DA60284B9B69274A43F0D3
:100E9C0004039361254B9B6903F004037B607B681F
:100EAC00224B9B69214A43F0080393611F4B9B69BA
:100EBC0003F008033B603B68002241F67E611C484E
:100ECC0000F0A9FC00227F211A4800F0A4FC41F696
:100EDC007E63BB600123FB6000233B6102237B61CB
:100EEC0007F108031946124800F004FB7F23BB608E
:100EFC000123FB6000233B6102237B6107F10803A4
:100F0C0019460C4800F0F6FA4FF4E063BB6000237E
:100F1C00FB6001233B6107F108031946054800F00B
:100F2C00E9FA00BF1837BD4680BD00BF0010024073
:100F3C0000080140000C014080B582B000AF786021
:100F4C0000F072F8FFF7FCF800BF0837BD4680BD13
:100F5C0080B400AF72B600BFFEE7000080B483B06F
:100F6C0000AF78607B680A4A82FB03129210DB1791
:100F7C00D31A084A1360074B1B68074A1360074BC8
:100F8C0000221A6000BF0C37BD4680BC704700BF02
:100F9C00676666669C000020A0000020A40000206C
:100FAC0080B483B000AF78607B680A4A82FB03127E
:100FBC009210DB17D31A084A1360074B1B68074AB9
:100FCC001360074B00221A6000BF0C37BD4680BC73
:100FDC00704700BF67666666A8000020AC00002062
:100FEC00B000002080B483B000AF78607B680A4A00
:100FFC0082FB03129210DB17D31A084A1360074BBB
:10100C001B68074A1360074B00221A6000BF0C379D
:10101C00BD4680BC704700BF67666666B4000020A2
:10102C00B8000020BC00002080B400AF194B1B6836
:10103C00002B0BDD174B1B68013B164A1360154B3D
:10104C001B68002B02DC144B01221A60134B1B682B
:10105C00002B0BDD114B1B68013B104A13600F4B2F
:10106C001B68002B02DC0E4B01221A600D4B1B6817
:10107C00002B0BDD0B4B1B68013B0A4A1360094B21
:10108C001B68002B02DC084B01221A6000BFBD4616
:10109C0080BC7047A0000020A4000020AC00002001
:1010AC00B0000020B8000020BC00002080B485B047
:1010BC0000AF154B9B69144A43F001039361124B2B
:1010CC009B6903F00103BB60BB680F4BDB690E4AE5
:1010DC0043F08053D3610C4BDB6903F080537B608E
:1010EC007B680A4B5B68FB60FB6823F0E063FB608A
:1010FC00FB6843F08063FB60044AFB68536000BFED
:10110C001437BD4680BC70470010024000000140FF
:10111C0080B584B000AF78607B681B68B3F1804FFA
:10112C0013D10C4BDB690B4A43F00103D361094B20
:10113C00DB6903F00103FB60FB68002200211C202B
:10114C0000F0A1F91C2000F0BAF900BF1037BD4621
:10115C0080BD00BF0010024080B400AFFEE780B439
:10116C0000AFFEE780B400AFFEE780B400AFFEE74F
:10117C0080B400AFFEE780B400AF00BFBD4680BCBA
:10118C00704780B400AF00BFBD4680BC704780B4D0
:10119C0000AF00BFBD4680BC704780B500AF00F00B
:1011AC007FF800BF80BD000080B500AF024800F0A2
:1011BC00DBFF00BF80BD00BFE400002080B400AFA7
:1011CC0000BFBD4680BC7047FFF7F8FF0B480C49C9
:1011DC000C4A002302E0D458C4500433C4188C4287
:1011EC00F9D3094A094C002301E013600432A242EE
:1011FC00FBD301F0F9FAFFF779FD704700000020EE
:10120C006C000020902800086C00002030010020A9
:10121C00FEE7000080B500AF084B1B68074A43F09F
:10122C0010031360032000F023F90F2000F008F8DE
:10123C00FFF73CFF0023184680BD00BF0020024092
:10124C0080B582B000AF7860124B1A68124B1B78D5
:10125C0019464FF47A73B3FBF1F3B2FBF3F3184670
:10126C0000F03BF90346002B01D001230EE07B6814
:10127C000F2B0AD8002279684FF0FF3000F003F9E9
:10128C00064A7B681360002300E0012318460837E8
:10129C00BD4680BD60000020680000206400002076
:1012AC0080B400AF054B1B781A46054B1B681344E2
:1012BC00034A136000BFBD4680BC70476800002025
:1012CC002C01002080B400AF024B1B681846BD46B1
:1012DC0080BC70472C01002080B485B000AF7860D2
:1012EC007B6803F00703FB600C4BDB68BB60BA68E0
:1012FC004FF6FF031340BB60FB681A02BB68134335
:10130C0043F0BF6343F40033BB60044ABB68D36053
:10131C0000BF1437BD4680BC704700BF00ED00E035
:10132C0080B400AF044BDB681B0A03F007031846BC
:10133C00BD4680BC704700BF00ED00E080B483B0B8
:10134C0000AF0346FB7197F90730002B0BDBFB79E1
:10135C0003F01F02064997F907305B09012000FAD8
:10136C0002F241F8232000BF0C37BD4680BC704709
:10137C0000E100E080B483B000AF03463960FB713C
:10138C0097F90730002B0ADB3B68DAB20C4997F966
:10139C0007301201D2B20B4483F800230AE03B68F9
:1013AC00DAB20849FB7903F00F03043B1201D2B205
:1013BC000B441A7600BF0C37BD4680BC704700BF8B
:1013CC0000E100E000ED00E080B489B000AFF8600F
:1013DC00B9607A60FB6803F00703FB61FB69C3F13A
:1013EC000703042B28BF0423BB61FB690433062BC2
:1013FC0002D9FB69033B00E000237B614FF0FF3215
:10140C00BB6902FA03F3DA43BB681A407B699A4062
:10141C004FF0FF317B6901FA03F3D9437B680B4032
:10142C00134318462437BD4680BC704780B582B044
:10143C0000AF78607B68013BB3F1807F01D301235F
:10144C000FE00A4A7B68013B53600F214FF0FF30DD
:10145C00FFF790FF054B00229A60044B07221A609D
:10146C00002318460837BD4680BD00BF10E000E0E1
:10147C0080B582B000AF78607868FFF72DFF00BFB1
:10148C000837BD4680BD80B586B000AF0346B96055
:10149C007A60FB7300237B61FFF742FF78617A6807
:1014AC00B9687869FFF790FF024697F90F3011463B
:1014BC001846FFF75FFF00BF1837BD4680BD80B5EB
:1014CC0082B000AF0346FB7197F907301846FFF75F
:1014DC0035FF00BF0837BD4680BD80B582B000AF78
:1014EC0078607868FFF7A2FF034618460837BD46B8
:1014FC0080BD000080B48BB000AF786039600023F1
:10150C007B6200233B6248E101227B6A02FA03F30F
:10151C00FB613B681B68FA691340BB61BA69FB69E4
:10152C009A4240F037813B685B68A34A93425ED095
:10153C00A14A934275D8A14A934258D09F4A9342EC
:10154C006FD89F4A934252D09D4A934269D89D4A84
:10155C0093424CD09B4A934263D89B4A934246D0C9
:10156C00994A93425DD8122B2AD8122B59D801A232
:10157C0052F823F0FB150008D5150008E7150008F4
:10158C00291600082F1600082F1600082F16000821
:10159C002F1600082F1600082F1600082F1600080B
:1015AC002F1600082F1600082F1600082F160008FB
:1015BC002F1600082F160008DD150008F11500087D
:1015CC00824A934213D02CE03B68DB683B6229E0F3
:1015DC003B68DB6804333B6224E03B68DB68083320
:1015EC003B621FE03B68DB680C333B621AE03B68F4
:1015FC009B68002B02D104233B6213E03B689B6881
:10160C00012B05D108233B627B68FA691A6109E05A
:10161C0008233B627B68FA695A6103E000233B6252
:10162C0000E000BFBB69FF2B01D87B6801E07B6841
:10163C0004337B61BB69FF2B02D87B6A9B0002E001
:10164C007B6A083B9B003B617B691A680F213B69F5
:10165C0001FA03F3DB431A40396A3B6901FA03F3DD
:10166C001A437B691A603B685B6803F08053002B5C
:10167C0000F09080564B9B69554A43F001039361EF
:10168C00534B9B6903F00103BB60BB68514A7B6AF7
:10169C009B08023352F82330FB607B6A03F0030390
:1016AC009B000F2202FA03F3DB43FA681340FB6042
:1016BC007B68494A93420DD07B68484A934207D0D5
:1016CC007B68474A934201D1022304E0032302E0E2
:1016DC00012300E000237A6A02F003029200934097
:1016EC00FA681343FB603B497B6A9B080233FA6838
:1016FC0041F823203B685B6803F48013002B06D071
:10170C00384B9A683749BB6913438B6006E0354BFD
:10171C009A68BB69DB43334913408B603B685B6859
:10172C0003F40013002B06D02E4BDA682D49BB694D
:10173C001343CB6006E02B4BDA68BB69DB432949CA
:10174C001340CB603B685B6803F40033002B06D07E
:10175C00244B5A682349BB6913434B6006E0214B69
:10176C005A68BB69DB431F4913404B603B685B689D
:10177C0003F48033002B06D01A4B1A681949BB6945
:10178C0013430B6006E0174B1A68BB69DB43154922
:10179C0013400B607B6A01337B623B681A687B6A7F
:1017AC0022FA03F3002B7FF4AFAE00BF00BF2C373F
:1017BC00BD4680BC704700BF0000321000003110E5
:1017CC000000221000002110000012100000111067
:1017DC00001002400000014000080140000C0140D4
:1017EC00001001400004014080B485B000AF786067
:1017FC000B467B807B689A687B881340002B02D059
:10180C000123FB7301E00023FB73FB7B18461437A9
:10181C00BD4680BC704780B483B000AF78600B4687
:10182C007B8013467B707B78002B03D07A887B6897
:10183C001A6103E07B881A047B681A6100BF0C37BD
:10184C00BD4680BC704780B485B000AF78600B4655
:10185C007B807B68DB68FB607A88FB6813401A042A
:10186C00FB68D9437B880B401A437B681A6100BF25
:10187C001437BD4680BC704780B586B000AF786029
:10188C007B68002B01D101236CE27B681B6803F0A1
:10189C000103002B00F08780924B5B6803F00C0374
:1018AC00042B0CD08F4B5B6803F00C03082B12D16C
:1018BC008C4B5B6803F48033B3F5803F0BD1894BC1
:1018CC001B6803F40033002B6CD07B685B68002B27
:1018DC0068D1012346E27B685B68B3F5803F06D193
:1018EC00804B1B687F4A43F4803313602EE07B6887
:1018FC005B68002B0CD17B4B1B687A4A23F480333A
:10190C001360784B1B68774A23F4802313601DE027
:10191C007B685B68B3F5A02F0CD1724B1B68714AC6
:10192C0043F4802313606F4B1B686E4A43F480337F
:10193C0013600BE06B4B1B686A4A23F48033136013
:10194C00684B1B68674A23F4802313607B685B68D1
:10195C00002B13D0FFF7B6FC386108E0FFF7B2FCA0
:10196C0002463B69D31A642B01D90323FAE15D4B80
:10197C001B6803F40033002BF0D014E0FFF7A2FC3B
:10198C00386108E0FFF79EFC02463B69D31A642BD2
:10199C0001D90323E6E1534B1B6803F40033002BFE
:1019AC00F0D100E000BF7B681B6803F00203002B42
:1019BC0063D04C4B5B6803F00C03002B0BD0494BF2
:1019CC005B6803F00C03082B1CD1464B5B6803F4DB
:1019DC008033002B16D1434B1B6803F00203002B02
:1019EC0005D07B681B69012B01D00123BAE13D4B6B
:1019FC001B6823F0F8027B685B69DB0039491343F1
:101A0C000B603AE07B681B69002B20D0364B01221F
:101A1C001A60FFF757FC386108E0FFF753FC0246E9
:101A2C003B69D31A022B01D903239BE12D4B1B6875
:101A3C0003F00203002BF0D02A4B1B6823F0F802B2
:101A4C007B685B69DB00274913430B6015E0264B71
:101A5C0000221A60FFF736FC386108E0FFF732FC11
:101A6C0002463B69D31A022B01D903237AE11D4BA1
:101A7C001B6803F00203002BF0D17B681B6803F09A
:101A8C000803002B3AD07B689B69002B19D0174BAD
:101A9C0001221A60FFF716FC386108E0FFF712FC10
:101AAC0002463B69D31A022B01D903235AE10D4B91
:101ABC005B6A03F00203002BF0D0012000F09AFACD
:101ACC001CE00A4B00221A60FFF7FCFB38610FE0A8
:101ADC00FFF7F8FB02463B69D31A022B08D9032304
:101AEC0040E100BF0010024000004242800442422C
:101AFC009E4B5B6A03F00203002BE9D17B681B68E9
:101B0C0003F00403002B00F0A6800023FB75974B19
:101B1C00DB6903F08053002B0DD1944BDB69934AA6
:101B2C0043F08053D361914BDB6903F08053BB606E
:101B3C00BB680123FB758E4B1B6803F48073002B71
:101B4C0018D18B4B1B688A4A43F480731360FFF7E0
:101B5C00B9FB386108E0FFF7B5FB02463B69D31AC5
:101B6C00642B01D90323FDE0814B1B6803F48073C4
:101B7C00002BF0D07B68DB68012B06D17B4B1B6AFA
:101B8C007A4A43F0010313622DE07B68DB68002B7B
:101B9C000CD1764B1B6A754A23F001031362734B0D
:101BAC001B6A724A23F0040313621CE07B68DB6837
:101BBC00052B0CD16D4B1B6A6C4A43F0040313626A
:101BCC006A4B1B6A694A43F0010313620BE0674BD3
:101BDC001B6A664A23F001031362644B1B6A634A57
:101BEC0023F0040313627B68DB68002B15D0FFF72E
:101BFC0069FB38610AE0FFF765FB02463B69D31AC3
:101C0C0041F28832934201D90323ABE0574B1B6A54
:101C1C0003F00203002BEED014E0FFF753FB386106
:101C2C000AE0FFF74FFB02463B69D31A41F28832B8
:101C3C00934201D9032395E04C4B1B6A03F002033A
:101C4C00002BEED1FB7D012B05D1484BDB69474ABC
:101C5C0023F08053D3617B68DB69002B00F081801B
:101C6C00424B5B6803F00C03082B61D07B68DB698B
:101C7C00022B46D13F4B00221A60FFF723FB386141
:101C8C0008E0FFF71FFB02463B69D31A022B01D970
:101C9C00032367E0354B1B6803F00073002BF0D176
:101CAC007B681B6AB3F5803F08D1304B5B6823F42B
:101CBC0000327B689B682D4913434B602B4B5B6850
:101CCC0023F474127B68196A7B685B6A0B4327499F
:101CDC0013434B60274B01221A60FFF7F3FA38616C
:101CEC0008E0FFF7EFFA02463B69D31A022B01D941
:101CFC00032337E01D4B1B6803F00073002BF0D05F
:101D0C002FE01C4B00221A60FFF7DCFA386108E068
:101D1C00FFF7D8FA02463B69D31A022B01D90323E9
:101D2C0020E0124B1B6803F00073002BF0D118E07D
:101D3C007B68DB69012B01D1012313E00B4B5B6842
:101D4C00FB60FB6803F480327B681B6A9A4206D105
:101D5C00FB6803F470127B685B6A9A4201D0012322
:101D6C0000E0002318461837BD4680BD0010024025
:101D7C00007000406000424280B584B000AF7860D3
:101D8C0039607B68002B01D10123D0E06A4B1B68C2
:101D9C0003F007033A689A4210D9674B1B6823F08B
:101DAC00070265493B6813430B60634B1B6803F0E8
:101DBC0007033A689A4201D00123B8E07B681B689C
:101DCC0003F00203002B20D07B681B6803F0040394
:101DDC00002B05D0594B5B68584A43F4E0635360C1
:101DEC007B681B6803F00803002B05D0534B5B6822
:101DFC00524A43F460535360504B5B6823F0F0023B
:101E0C007B689B684D4913434B607B681B6803F0F0
:101E1C000103002B40D07B685B68012B07D1474B3B
:101E2C001B6803F40033002B15D101237FE07B6882
:101E3C005B68022B07D1414B1B6803F00073002B2E
:101E4C0009D1012373E03D4B1B6803F00203002B07
:101E5C0001D101236BE0394B5B6823F003027B68F3
:101E6C005B68364913434B60FFF72CFAF8600AE0C5
:101E7C00FFF728FA0246FB68D31A41F288329342E4
:101E8C0001D9032353E02D4B5B6803F00C027B68F4
:101E9C005B689B009A42EBD1274B1B6803F007034E
:101EAC003A689A4210D2244B1B6823F0070222494D
:101EBC003B6813430B60204B1B6803F007033A6825
:101ECC009A4201D0012332E07B681B6803F00403C3
:101EDC00002B08D0194B5B6823F4E0627B68DB684D
:101EEC00164913434B607B681B6803F00803002BF7
:101EFC0009D0124B5B6823F460527B681B69DB00D2
:101F0C000E4913434B6000F021F802460B4B5B6803
:101F1C001B0903F00F030A49CB5C22FA03F3094AAD
:101F2C001360094B1B681846FFF78AF90023184603
:101F3C001037BD4680BD00BF00200240001002409B
:101F4C0064280008600000206400002080B487B082
:101F5C0000AF0023FB600023BB6000237B610023E8
:101F6C007B6000233B611E4B5B68FB60FB6803F0EE
:101F7C000C03042B02D0082B03D027E0194B3B6138
:101F8C0027E0FB689B0C03F00F03174AD35C7B60C4
:101F9C00FB6803F48033002B10D0114B5B685B0C97
:101FAC0003F00103114AD35CBB607B680D4A02FB52
:101FBC0003F2BB68B2FBF3F37B6104E07B680C4A71
:101FCC0002FB03F37B617B693B6102E0054B3B61E8
:101FDC0000BF3B6918461C37BD4680BC704700BF2C
:101FEC000010024000127A007428000884280008AF
:101FFC0000093D0080B485B000AF78600A4B1B68C7
:10200C000A4AA2FB03235B0A7A6802FB03F3FB6018
:10201C0000BFFB685A1EFA60002BF9D100BF00BF4D
:10202C001437BD4680BC704760000020D34D621051
:10203C0080B582B000AF78607B68002B01D10123A2
:10204C0041E07B6893F83D30DBB2002B06D17B6816
:10205C00002283F83C207868FFF75AF87B6802224C
:10206C0083F83D207B681A687B6804331946104658
:10207C0000F056FA7B68012283F846207B68012227
:10208C0083F83E207B68012283F83F207B68012285
:10209C0083F840207B68012283F841207B68012271
:1020AC0083F842207B68012283F843207B6801225D
:1020BC0083F844207B68012283F845207B68012249
:1020CC0083F83D20002318460837BD4680BD00002C
:1020DC0080B485B000AF78607B6893F83D30DBB29C
:1020EC00012B01D0012335E07B68022283F83D20CF
:1020FC007B681B68DA687B681B6842F00102DA6057
:10210C007B681B68164A934209D07B681B68B3F145
:10211C00804F04D07B681B68124A934211D17B68B4
:10212C001B689B6803F00703FB60FB68062B10D051
:10213C007B681B681A687B681B6842F001021A6096
:10214C0007E07B681B681A687B681B6842F0010219
:10215C001A60002318461437BD4680BC704700BF78
:10216C00002C01400004004080B584B000AF7860C2
:10217C007B681B68DB68FB607B681B681B69BB604A
:10218C00BB6803F00203002B20D0FB6803F00203B2
:10219C00002B1BD07B681B686FF002021A617B68F6
:1021AC0001221A777B681B689B6903F00303002BE1
:1021BC0003D0786800F098F905E0786800F08BF9A6
:1021CC00786800F09AF97B6800221A77BB6803F0F4
:1021DC000403002B20D0FB6803F00403002B1BD05E
:1021EC007B681B686FF004021A617B6802221A7705
:1021FC007B681B689B6903F44073002B03D07868E1
:10220C0000F072F905E0786800F065F9786800F084
:10221C0074F97B6800221A77BB6803F00803002B63
:10222C0020D0FB6803F00803002B1BD07B681B68D5
:10223C006FF008021A617B6804221A777B681B68AE
:10224C00DB6903F00303002B03D0786800F04CF932
:10225C0005E0786800F03FF9786800F04EF97B688B
:10226C0000221A77BB6803F01003002B20D0FB6808
:10227C0003F01003002B1BD07B681B686FF010025F
:10228C001A617B6808221A777B681B68DB6903F488
:10229C004073002B03D0786800F026F905E07868CD
:1022AC0000F019F9786800F028F97B6800221A7799
:1022BC00BB6803F00103002B0CD0FB6803F0010397
:1022CC00002B07D07B681B686FF001021A617868DD
:1022DC00FEF732FEBB6803F08003002B0CD0FB68CA
:1022EC0003F08003002B07D07B681B686FF0800223
:1022FC001A61786800F06FFABB6803F04003002B9A
:10230C000CD0FB6803F04003002B07D07B681B68E4
:10231C006FF040021A61786800F0F8F8BB6803F0BF
:10232C002003002B0CD0FB6803F02003002B07D0FC
:10233C007B681B686FF020021A61786800F042FA23
:10234C0000BF1037BD4680BD80B584B000AF78604B
:10235C0039600023FB737B6893F83C30012B01D16F
:10236C000223B4E07B68012283F83C207B680222C4
:10237C0083F83D207B681B689B68BB60BB6823F0BF
:10238C007703BB60BB6823F47F43BB607B681B682F
:10239C00BA689A603B681B68B3F5005F3ED0B3F532
:1023AC00005F00F28780B3F5805F00F08680B3F5A4
:1023BC00805F7FD8702B1AD0702B7BD8602B50D0BD
:1023CC00602B77D8502B3CD0502B73D8402B58D047
:1023DC00402B6FD8302B64D0302B6BD8202B60D097
:1023EC00202B67D8002B5CD0102B5AD062E07B6876
:1023FC0018683B6899683B685A683B68DB6800F072
:10240C006AF97B681B689B68BB60BB6843F0770309
:10241C00BB607B681B68BA689A604FE07B68186881
:10242C003B6899683B685A683B68DB6800F053F975
:10243C007B681B689A687B681B6842F480429A60D0
:10244C003CE07B6818683B6859683B68DB681A4657
:10245C0000F0CAF87B681B685021184600F021F97F
:10246C002CE07B6818683B6859683B68DB681A4647
:10247C0000F0E8F87B681B686021184600F011F941
:10248C001CE07B6818683B6859683B68DB681A4637
:10249C0000F0AAF87B681B684021184600F001F98F
:1024AC000CE07B681A683B681B681946104600F004
:1024BC00F8F803E00123FB7300E000BF7B68012206
:1024CC0083F83D207B68002283F83C20FB7B184678
:1024DC001037BD4680BD80B483B000AF786000BFBC
:1024EC000C37BD4680BC704780B483B000AF7860B9
:1024FC0000BF0C37BD4680BC704780B483B000AFC2
:10250C00786000BF0C37BD4680BC704780B483B088
:10251C0000AF786000BF0C37BD4680BC7047000030
:10252C0080B485B000AF786039607B681B68FB6055
:10253C007B682B4A934207D07B68B3F1804F03D062
:10254C007B68284A934208D1FB6823F07003FB6038
:10255C003B685B68FA681343FB607B68204A9342D4
:10256C0007D07B68B3F1804F03D07B681D4A934240
:10257C0008D1FB6823F44073FB603B68DB68FA68A6
:10258C001343FB60FB6823F080023B685B691343D9
:10259C00FB607B68FA681A603B689A687B68DA6251
:1025AC003B681A687B689A627B680D4A934203D138
:1025BC003B681A697B681A637B6801225A617B68E5
:1025CC001B6903F00103002B05D07B681B6923F00A
:1025DC0001027B681A6100BF1437BD4680BC70478E
:1025EC00002C01400004004080B487B000AFF860BC
:1025FC00B9607A60FB681B6A7B61FB681B6A23F01D
:10260C000102FB681A62FB689B693B613B6923F022
:10261C00F0033B617B681B013A6913433B617B69A7
:10262C0023F00A037B617A69BB6813437B61FB6807
:10263C003A699A61FB687A691A6200BF1C37BD4619
:10264C0080BC704780B487B000AFF860B9607A6026
:10265C00FB681B6A7B61FB681B6A23F01002FB683A
:10266C001A62FB689B693B613B6923F470433B61D5
:10267C007B681B033A6913433B617B6923F0A0031E
:10268C007B61BB681B017A6913437B61FB683A6908
:10269C009A61FB687A691A6200BF1C37BD4680BC20
:1026AC00704780B485B000AF786039607B689B68F8
:1026BC00FB60FB6823F07003FB603A68FB68134314
:1026CC0043F00703FB607B68FA689A6000BF14371D
:1026DC00BD4680BC704780B487B000AFF860B9606D
:1026EC007A603B60FB689B687B617B6923F47F436A
:1026FC007B613B681A027B681A43BB6813437A6997
:10270C0013437B61FB687A699A6000BF1C37BD4636
:10271C0080BC704780B485B000AF786039607B684E
:10272C0093F83C30012B01D1022341E07B6801225C
:10273C0083F83C207B68022283F83D207B681B6871
:10274C005B68FB607B681B689B68BB60FB6823F065
:10275C007003FB603B681B68FA681343FB607B6883
:10276C001B68FA685A607B681B68144A934209D04C
:10277C007B681B68B3F1804F04D07B681B68104AE0
:10278C0093420CD1BB6823F08003BB603B685B6851
:10279C00BA681343BB607B681B68BA689A607B6835
:1027AC00012283F83D207B68002283F83C20002323
:1027BC0018461437BD4680BC704700BF002C014042
:1027CC000004004080B483B000AF786000BF0C37C9
:1027DC00BD4680BC704780B483B000AF786000BF4A
:1027EC000C37BD4680BC704770B500260C4D0D4CA7
:1027FC00641BA410A64209D100F022F800260A4D51
:10280C000A4C641BA410A64205D170BD55F8043BBC
:10281C0098470136EEE755F8043B98470136F2E746
:10282C008828000888280008882800088C280008B8
:10283C0003460244934200D1704703F8011BF9E7A9
:10284C00F8B500BFF8BC08BC9E467047F8B500BF91
:08285C00F8BC08BC9E46704761
:10286400000000000000000001020304060708093C
:1028740002030405060708090A0B0C0D0E0F1010BD
:04288400010200004D
:042888003101000812
:04288C000D01000832
:10289000010101000101010001010100010101002C
:1028A000050003000200000000000000000001011C
:1028B0000000010101010000010000010000000012
:1028C0000001010001000001010000000100000101
:1028D00000000001000000000000000001010101F3
:1028E00000000000000000000000000100000000E7
:0C28F00000127A0010000000010000003F
:04000005080011D509
:00000001FF
